{
  "contractName": "SolnSquareVerifier",
  "abi": [
    {
      "anonymous": false,
      "inputs": [
        {
          "indexed": true,
          "internalType": "address",
          "name": "owner",
          "type": "address"
        },
        {
          "indexed": true,
          "internalType": "address",
          "name": "approved",
          "type": "address"
        },
        {
          "indexed": true,
          "internalType": "uint256",
          "name": "tokenId",
          "type": "uint256"
        }
      ],
      "name": "Approval",
      "type": "event"
    },
    {
      "anonymous": false,
      "inputs": [
        {
          "indexed": true,
          "internalType": "address",
          "name": "owner",
          "type": "address"
        },
        {
          "indexed": true,
          "internalType": "address",
          "name": "operator",
          "type": "address"
        },
        {
          "indexed": false,
          "internalType": "bool",
          "name": "approved",
          "type": "bool"
        }
      ],
      "name": "ApprovalForAll",
      "type": "event"
    },
    {
      "anonymous": false,
      "inputs": [
        {
          "indexed": true,
          "internalType": "address",
          "name": "from",
          "type": "address"
        },
        {
          "indexed": true,
          "internalType": "address",
          "name": "to",
          "type": "address"
        }
      ],
      "name": "OwnershipTransfered",
      "type": "event"
    },
    {
      "anonymous": false,
      "inputs": [
        {
          "indexed": false,
          "internalType": "address",
          "name": "addr",
          "type": "address"
        }
      ],
      "name": "Paused",
      "type": "event"
    },
    {
      "anonymous": false,
      "inputs": [
        {
          "indexed": false,
          "internalType": "bytes32",
          "name": "key",
          "type": "bytes32"
        },
        {
          "indexed": false,
          "internalType": "address",
          "name": "addr",
          "type": "address"
        },
        {
          "indexed": false,
          "internalType": "uint256",
          "name": "tokenId",
          "type": "uint256"
        }
      ],
      "name": "SolutionAdded",
      "type": "event"
    },
    {
      "anonymous": false,
      "inputs": [
        {
          "indexed": true,
          "internalType": "address",
          "name": "from",
          "type": "address"
        },
        {
          "indexed": true,
          "internalType": "address",
          "name": "to",
          "type": "address"
        },
        {
          "indexed": true,
          "internalType": "uint256",
          "name": "tokenId",
          "type": "uint256"
        }
      ],
      "name": "Transfer",
      "type": "event"
    },
    {
      "anonymous": false,
      "inputs": [
        {
          "indexed": false,
          "internalType": "address",
          "name": "addr",
          "type": "address"
        }
      ],
      "name": "UnPaused",
      "type": "event"
    },
    {
      "constant": true,
      "inputs": [
        {
          "internalType": "bytes32",
          "name": "_myid",
          "type": "bytes32"
        },
        {
          "internalType": "string",
          "name": "_result",
          "type": "string"
        }
      ],
      "name": "__callback",
      "outputs": [],
      "payable": false,
      "stateMutability": "pure",
      "type": "function"
    },
    {
      "constant": true,
      "inputs": [
        {
          "internalType": "bytes32",
          "name": "_myid",
          "type": "bytes32"
        },
        {
          "internalType": "string",
          "name": "_result",
          "type": "string"
        },
        {
          "internalType": "bytes",
          "name": "_proof",
          "type": "bytes"
        }
      ],
      "name": "__callback",
      "outputs": [],
      "payable": false,
      "stateMutability": "pure",
      "type": "function"
    },
    {
      "constant": true,
      "inputs": [
        {
          "internalType": "bytes4",
          "name": "interfaceId",
          "type": "bytes4"
        }
      ],
      "name": "_supportsInterface",
      "outputs": [
        {
          "internalType": "bool",
          "name": "",
          "type": "bool"
        }
      ],
      "payable": false,
      "stateMutability": "view",
      "type": "function"
    },
    {
      "constant": false,
      "inputs": [
        {
          "internalType": "address",
          "name": "to",
          "type": "address"
        },
        {
          "internalType": "uint256",
          "name": "tokenId",
          "type": "uint256"
        }
      ],
      "name": "approve",
      "outputs": [],
      "payable": false,
      "stateMutability": "nonpayable",
      "type": "function"
    },
    {
      "constant": true,
      "inputs": [
        {
          "internalType": "address",
          "name": "owner",
          "type": "address"
        }
      ],
      "name": "balanceOf",
      "outputs": [
        {
          "internalType": "uint256",
          "name": "",
          "type": "uint256"
        }
      ],
      "payable": false,
      "stateMutability": "view",
      "type": "function"
    },
    {
      "constant": true,
      "inputs": [
        {
          "internalType": "uint256",
          "name": "tokenId",
          "type": "uint256"
        }
      ],
      "name": "getApproved",
      "outputs": [
        {
          "internalType": "address",
          "name": "",
          "type": "address"
        }
      ],
      "payable": false,
      "stateMutability": "view",
      "type": "function"
    },
    {
      "constant": true,
      "inputs": [],
      "name": "getBaseTokenURI",
      "outputs": [
        {
          "internalType": "string",
          "name": "",
          "type": "string"
        }
      ],
      "payable": false,
      "stateMutability": "view",
      "type": "function"
    },
    {
      "constant": true,
      "inputs": [],
      "name": "getContractOwner",
      "outputs": [
        {
          "internalType": "address",
          "name": "",
          "type": "address"
        }
      ],
      "payable": false,
      "stateMutability": "view",
      "type": "function"
    },
    {
      "constant": true,
      "inputs": [],
      "name": "getName",
      "outputs": [
        {
          "internalType": "string",
          "name": "",
          "type": "string"
        }
      ],
      "payable": false,
      "stateMutability": "view",
      "type": "function"
    },
    {
      "constant": true,
      "inputs": [],
      "name": "getSymbol",
      "outputs": [
        {
          "internalType": "string",
          "name": "",
          "type": "string"
        }
      ],
      "payable": false,
      "stateMutability": "view",
      "type": "function"
    },
    {
      "constant": true,
      "inputs": [
        {
          "internalType": "address",
          "name": "owner",
          "type": "address"
        },
        {
          "internalType": "address",
          "name": "operator",
          "type": "address"
        }
      ],
      "name": "isApprovedForAll",
      "outputs": [
        {
          "internalType": "bool",
          "name": "",
          "type": "bool"
        }
      ],
      "payable": false,
      "stateMutability": "view",
      "type": "function"
    },
    {
      "constant": true,
      "inputs": [
        {
          "internalType": "uint256",
          "name": "tokenId",
          "type": "uint256"
        }
      ],
      "name": "ownerOf",
      "outputs": [
        {
          "internalType": "address",
          "name": "",
          "type": "address"
        }
      ],
      "payable": false,
      "stateMutability": "view",
      "type": "function"
    },
    {
      "constant": false,
      "inputs": [
        {
          "internalType": "address",
          "name": "from",
          "type": "address"
        },
        {
          "internalType": "address",
          "name": "to",
          "type": "address"
        },
        {
          "internalType": "uint256",
          "name": "tokenId",
          "type": "uint256"
        }
      ],
      "name": "safeTransferFrom",
      "outputs": [],
      "payable": false,
      "stateMutability": "nonpayable",
      "type": "function"
    },
    {
      "constant": false,
      "inputs": [
        {
          "internalType": "address",
          "name": "from",
          "type": "address"
        },
        {
          "internalType": "address",
          "name": "to",
          "type": "address"
        },
        {
          "internalType": "uint256",
          "name": "tokenId",
          "type": "uint256"
        },
        {
          "internalType": "bytes",
          "name": "_data",
          "type": "bytes"
        }
      ],
      "name": "safeTransferFrom",
      "outputs": [],
      "payable": false,
      "stateMutability": "nonpayable",
      "type": "function"
    },
    {
      "constant": false,
      "inputs": [
        {
          "internalType": "address",
          "name": "to",
          "type": "address"
        },
        {
          "internalType": "bool",
          "name": "approved",
          "type": "bool"
        }
      ],
      "name": "setApprovalForAll",
      "outputs": [],
      "payable": false,
      "stateMutability": "nonpayable",
      "type": "function"
    },
    {
      "constant": false,
      "inputs": [
        {
          "internalType": "bool",
          "name": "mode",
          "type": "bool"
        }
      ],
      "name": "setPaused",
      "outputs": [],
      "payable": false,
      "stateMutability": "nonpayable",
      "type": "function"
    },
    {
      "constant": true,
      "inputs": [
        {
          "internalType": "uint256",
          "name": "index",
          "type": "uint256"
        }
      ],
      "name": "tokenByIndex",
      "outputs": [
        {
          "internalType": "uint256",
          "name": "",
          "type": "uint256"
        }
      ],
      "payable": false,
      "stateMutability": "view",
      "type": "function"
    },
    {
      "constant": true,
      "inputs": [
        {
          "internalType": "address",
          "name": "owner",
          "type": "address"
        },
        {
          "internalType": "uint256",
          "name": "index",
          "type": "uint256"
        }
      ],
      "name": "tokenOfOwnerByIndex",
      "outputs": [
        {
          "internalType": "uint256",
          "name": "",
          "type": "uint256"
        }
      ],
      "payable": false,
      "stateMutability": "view",
      "type": "function"
    },
    {
      "constant": true,
      "inputs": [
        {
          "internalType": "uint256",
          "name": "tokenId",
          "type": "uint256"
        }
      ],
      "name": "tokenURI",
      "outputs": [
        {
          "internalType": "string",
          "name": "",
          "type": "string"
        }
      ],
      "payable": false,
      "stateMutability": "view",
      "type": "function"
    },
    {
      "constant": true,
      "inputs": [],
      "name": "totalSupply",
      "outputs": [
        {
          "internalType": "uint256",
          "name": "",
          "type": "uint256"
        }
      ],
      "payable": false,
      "stateMutability": "view",
      "type": "function"
    },
    {
      "constant": false,
      "inputs": [
        {
          "internalType": "address",
          "name": "from",
          "type": "address"
        },
        {
          "internalType": "address",
          "name": "to",
          "type": "address"
        },
        {
          "internalType": "uint256",
          "name": "tokenId",
          "type": "uint256"
        }
      ],
      "name": "transferFrom",
      "outputs": [],
      "payable": false,
      "stateMutability": "nonpayable",
      "type": "function"
    },
    {
      "constant": false,
      "inputs": [
        {
          "internalType": "address",
          "name": "newOwner",
          "type": "address"
        }
      ],
      "name": "transferOwnership",
      "outputs": [],
      "payable": false,
      "stateMutability": "nonpayable",
      "type": "function"
    },
    {
      "constant": true,
      "inputs": [
        {
          "internalType": "uint256[2]",
          "name": "a",
          "type": "uint256[2]"
        },
        {
          "internalType": "uint256[2][2]",
          "name": "b",
          "type": "uint256[2][2]"
        },
        {
          "internalType": "uint256[2]",
          "name": "c",
          "type": "uint256[2]"
        },
        {
          "internalType": "uint256[2]",
          "name": "input",
          "type": "uint256[2]"
        }
      ],
      "name": "verifyTx",
      "outputs": [
        {
          "internalType": "bool",
          "name": "r",
          "type": "bool"
        }
      ],
      "payable": false,
      "stateMutability": "view",
      "type": "function"
    },
    {
      "constant": false,
      "inputs": [
        {
          "internalType": "address",
          "name": "addr",
          "type": "address"
        },
        {
          "internalType": "uint256",
          "name": "tokenId",
          "type": "uint256"
        },
        {
          "internalType": "uint256[2]",
          "name": "a",
          "type": "uint256[2]"
        },
        {
          "internalType": "uint256[2][2]",
          "name": "b",
          "type": "uint256[2][2]"
        },
        {
          "internalType": "uint256[2]",
          "name": "c",
          "type": "uint256[2]"
        },
        {
          "internalType": "uint256[2]",
          "name": "input",
          "type": "uint256[2]"
        }
      ],
      "name": "addSolution",
      "outputs": [],
      "payable": false,
      "stateMutability": "nonpayable",
      "type": "function"
    },
    {
      "constant": false,
      "inputs": [
        {
          "internalType": "address",
          "name": "to",
          "type": "address"
        },
        {
          "internalType": "uint256",
          "name": "tokenId",
          "type": "uint256"
        }
      ],
      "name": "mint",
      "outputs": [
        {
          "internalType": "bool",
          "name": "",
          "type": "bool"
        }
      ],
      "payable": false,
      "stateMutability": "nonpayable",
      "type": "function"
    }
  ],
  "bytecode": "0x60806040526040518060400160405280600e81526020017f5369645265616c457374617465730000000000000000000000000000000000008152506040518060400160405280600381526020017f53524500000000000000000000000000000000000000000000000000000000008152506040518060600160405280603f815260200162004e0c603f9139336000806101000a81548173ffffffffffffffffffffffffffffffffffffffff021916908373ffffffffffffffffffffffffffffffffffffffff1602179055506000809054906101000a900473ffffffffffffffffffffffffffffffffffffffff1673ffffffffffffffffffffffffffffffffffffffff16600073ffffffffffffffffffffffffffffffffffffffff167f0d18b5fd22306e373229b9439188228edca81207d1667f604daf6cef8aa3ee6760405160405180910390a360008060146101000a81548160ff021916908315150217905550620001786301ffc9a760e01b6200021460201b60201c565b620001906380ac58cd60e01b6200021460201b60201c565b620001a863780e9d6360e01b6200021460201b60201c565b82600f9080519060200190620001c09291906200031d565b508160109080519060200190620001d99291906200031d565b508060119080519060200190620001f29291906200031d565b506200020b635b5e139f60e01b6200021460201b60201c565b505050620003cc565b63ffffffff60e01b817bffffffffffffffffffffffffffffffffffffffffffffffffffffffff19161415620002b1576040517f08c379a000000000000000000000000000000000000000000000000000000000815260040180806020018281038252601c8152602001807f5468697320696e7465726661636520697320307866666666666666660000000081525060200191505060405180910390fd5b6001806000837bffffffffffffffffffffffffffffffffffffffffffffffffffffffff19167bffffffffffffffffffffffffffffffffffffffffffffffffffffffff1916815260200190815260200160002060006101000a81548160ff02191690831515021790555050565b828054600181600116156101000203166002900490600052602060002090601f016020900481019282601f106200036057805160ff191683800117855562000391565b8280016001018555821562000391579182015b828111156200039057825182559160200191906001019062000373565b5b509050620003a09190620003a4565b5090565b620003c991905b80821115620003c5576000816000905550600101620003ab565b5090565b90565b614a3080620003dc6000396000f3fe608060405234801561001057600080fd5b50600436106101735760003560e01c806340c10f19116100de57806370a0823111610097578063bdc32be011610071578063bdc32be014610d5d578063c87b56dd14610de0578063e985e9c514610e87578063f2fde38b14610f0357610173565b806370a0823114610bb0578063a22cb46514610c08578063b88d4fde14610c5857610173565b806340c10f191461086957806342842e0e146108cf578063442890d51461093d5780634f6ccce714610987578063621e9ec0146109c95780636352211e14610b4257610173565b806318160ddd1161013057806318160ddd146103cf57806323b872dd146103ed57806327dc297e1461045b5780632f745c591461052057806338bbfa50146105825780633eec14da146106de57610173565b8063081812fc14610178578063095ea7b3146101e6578063150704011461023457806315c8276d146102b757806316c38b3c1461031c57806317d7de7c1461034c575b600080fd5b6101a46004803603602081101561018e57600080fd5b8101908080359060200190929190505050610f47565b604051808273ffffffffffffffffffffffffffffffffffffffff1673ffffffffffffffffffffffffffffffffffffffff16815260200191505060405180910390f35b610232600480360360408110156101fc57600080fd5b81019080803573ffffffffffffffffffffffffffffffffffffffff16906020019092919080359060200190929190505050611059565b005b61023c6112f7565b6040518080602001828103825283818151815260200191508051906020019080838360005b8381101561027c578082015181840152602081019050610261565b50505050905090810190601f1680156102a95780820380516001836020036101000a031916815260200191505b509250505060405180910390f35b610302600480360360208110156102cd57600080fd5b8101908080357bffffffffffffffffffffffffffffffffffffffffffffffffffffffff19169060200190929190505050611399565b604051808215151515815260200191505060405180910390f35b61034a6004803603602081101561033257600080fd5b81019080803515159060200190929190505050611401565b005b6103546115d1565b6040518080602001828103825283818151815260200191508051906020019080838360005b83811015610394578082015181840152602081019050610379565b50505050905090810190601f1680156103c15780820380516001836020036101000a031916815260200191505b509250505060405180910390f35b6103d7611673565b6040518082815260200191505060405180910390f35b6104596004803603606081101561040357600080fd5b81019080803573ffffffffffffffffffffffffffffffffffffffff169060200190929190803573ffffffffffffffffffffffffffffffffffffffff16906020019092919080359060200190929190505050611680565b005b61051e6004803603604081101561047157600080fd5b81019080803590602001909291908035906020019064010000000081111561049857600080fd5b8201836020820111156104aa57600080fd5b803590602001918460018302840111640100000000831117156104cc57600080fd5b91908080601f016020809104026020016040519081016040528093929190818152602001838380828437600081840152601f19601f82011690508083019250505050505050919291929050505061170c565b005b61056c6004803603604081101561053657600080fd5b81019080803573ffffffffffffffffffffffffffffffffffffffff1690602001909291908035906020019092919050505061174f565b6040518082815260200191505060405180910390f35b6106dc6004803603606081101561059857600080fd5b8101908080359060200190929190803590602001906401000000008111156105bf57600080fd5b8201836020820111156105d157600080fd5b803590602001918460018302840111640100000000831117156105f357600080fd5b91908080601f016020809104026020016040519081016040528093929190818152602001838380828437600081840152601f19601f8201169050808301925050505050505091929192908035906020019064010000000081111561065657600080fd5b82018360208201111561066857600080fd5b8035906020019184600183028401116401000000008311171561068a57600080fd5b91908080601f016020809104026020016040519081016040528093929190818152602001838380828437600081840152601f19601f82011690508083019250505050505050919291929050505061182b565b005b61086760048036036101808110156106f557600080fd5b81019080803573ffffffffffffffffffffffffffffffffffffffff1690602001909291908035906020019092919080604001906002806020026040519081016040528092919082600260200280828437600081840152601f19601f82011690508083019250505050505091929192908060800190600280602002604051908101604052809291906000905b828210156107d4578382604002016002806020026040519081016040528092919082600260200280828437600081840152601f19601f82011690508083019250505050505081526020019060010190610780565b50505050919291929080604001906002806020026040519081016040528092919082600260200280828437600081840152601f19601f820116905080830192505050505050919291929080604001906002806020026040519081016040528092919082600260200280828437600081840152601f19601f8201169050808301925050505050509192919290505050611830565b005b6108b56004803603604081101561087f57600080fd5b81019080803573ffffffffffffffffffffffffffffffffffffffff16906020019092919080359060200190929190505050611bcd565b604051808215151515815260200191505060405180910390f35b61093b600480360360608110156108e557600080fd5b81019080803573ffffffffffffffffffffffffffffffffffffffff169060200190929190803573ffffffffffffffffffffffffffffffffffffffff16906020019092919080359060200190929190505050611c77565b005b610945611c97565b604051808273ffffffffffffffffffffffffffffffffffffffff1673ffffffffffffffffffffffffffffffffffffffff16815260200191505060405180910390f35b6109b36004803603602081101561099d57600080fd5b8101908080359060200190929190505050611cc0565b6040518082815260200191505060405180910390f35b610b2860048036036101408110156109e057600080fd5b8101908080604001906002806020026040519081016040528092919082600260200280828437600081840152601f19601f82011690508083019250505050505091929192908060800190600280602002604051908101604052809291906000905b82821015610a95578382604002016002806020026040519081016040528092919082600260200280828437600081840152601f19601f82011690508083019250505050505081526020019060010190610a41565b50505050919291929080604001906002806020026040519081016040528092919082600260200280828437600081840152601f19601f820116905080830192505050505050919291929080604001906002806020026040519081016040528092919082600260200280828437600081840152601f19601f8201169050808301925050505050509192919290505050611d40565b604051808215151515815260200191505060405180910390f35b610b6e60048036036020811015610b5857600080fd5b8101908080359060200190929190505050611f3c565b604051808273ffffffffffffffffffffffffffffffffffffffff1673ffffffffffffffffffffffffffffffffffffffff16815260200191505060405180910390f35b610bf260048036036020811015610bc657600080fd5b81019080803573ffffffffffffffffffffffffffffffffffffffff169060200190929190505050611f79565b6040518082815260200191505060405180910390f35b610c5660048036036040811015610c1e57600080fd5b81019080803573ffffffffffffffffffffffffffffffffffffffff169060200190929190803515159060200190929190505050611fc9565b005b610d5b60048036036080811015610c6e57600080fd5b81019080803573ffffffffffffffffffffffffffffffffffffffff169060200190929190803573ffffffffffffffffffffffffffffffffffffffff1690602001909291908035906020019092919080359060200190640100000000811115610cd557600080fd5b820183602082011115610ce757600080fd5b80359060200191846001830284011164010000000083111715610d0957600080fd5b91908080601f016020809104026020016040519081016040528093929190818152602001838380828437600081840152601f19601f82011690508083019250505050505050919291929050505061214f565b005b610d656121de565b6040518080602001828103825283818151815260200191508051906020019080838360005b83811015610da5578082015181840152602081019050610d8a565b50505050905090810190601f168015610dd25780820380516001836020036101000a031916815260200191505b509250505060405180910390f35b610e0c60048036036020811015610df657600080fd5b8101908080359060200190929190505050612280565b6040518080602001828103825283818151815260200191508051906020019080838360005b83811015610e4c578082015181840152602081019050610e31565b50505050905090810190601f168015610e795780820380516001836020036101000a031916815260200191505b509250505060405180910390f35b610ee960048036036040811015610e9d57600080fd5b81019080803573ffffffffffffffffffffffffffffffffffffffff169060200190929190803573ffffffffffffffffffffffffffffffffffffffff1690602001909291905050506123b0565b604051808215151515815260200191505060405180910390f35b610f4560048036036020811015610f1957600080fd5b81019080803573ffffffffffffffffffffffffffffffffffffffff169060200190929190505050612444565b005b60008073ffffffffffffffffffffffffffffffffffffffff166003600084815260200190815260200160002060009054906101000a900473ffffffffffffffffffffffffffffffffffffffff1673ffffffffffffffffffffffffffffffffffffffff16141561101e576040517f08c379a000000000000000000000000000000000000000000000000000000000815260040180806020018281038252601d8152602001807f496e76616c6964206164647265737320666f7220617070726f76616c7300000081525060200191505060405180910390fd5b6003600083815260200190815260200160002060009054906101000a900473ffffffffffffffffffffffffffffffffffffffff169050919050565b6002600082815260200190815260200160002060009054906101000a900473ffffffffffffffffffffffffffffffffffffffff1673ffffffffffffffffffffffffffffffffffffffff168273ffffffffffffffffffffffffffffffffffffffff16141561112e576040517f08c379a00000000000000000000000000000000000000000000000000000000081526004018080602001828103825260168152602001807f546f6b656e20697320616c7265616479206f776e65640000000000000000000081525060200191505060405180910390fd5b61116b6002600083815260200190815260200160002060009054906101000a900473ffffffffffffffffffffffffffffffffffffffff16336123b0565b806111d457506002600082815260200190815260200160002060009054906101000a900473ffffffffffffffffffffffffffffffffffffffff1673ffffffffffffffffffffffffffffffffffffffff163373ffffffffffffffffffffffffffffffffffffffff16145b611246576040517f08c379a00000000000000000000000000000000000000000000000000000000081526004018080602001828103825260168152602001807f4e6f7420616c6c6f77656420746f20617070726f76650000000000000000000081525060200191505060405180910390fd5b816003600083815260200190815260200160002060006101000a81548173ffffffffffffffffffffffffffffffffffffffff021916908373ffffffffffffffffffffffffffffffffffffffff160217905550808273ffffffffffffffffffffffffffffffffffffffff163373ffffffffffffffffffffffffffffffffffffffff167f8c5be1e5ebec7d5bd14f71427d1e84f3dd0314c0f7b2291e5b200ac8c7c3b92560405160405180910390a45050565b606060108054600181600116156101000203166002900480601f01602080910402602001604051908101604052809291908181526020018280546001816001161561010002031660029004801561138f5780601f106113645761010080835404028352916020019161138f565b820191906000526020600020905b81548152906001019060200180831161137257829003601f168201915b5050505050905090565b600060016000837bffffffffffffffffffffffffffffffffffffffffffffffffffffffff19167bffffffffffffffffffffffffffffffffffffffffffffffffffffffff1916815260200190815260200160002060009054906101000a900460ff169050919050565b3373ffffffffffffffffffffffffffffffffffffffff166000809054906101000a900473ffffffffffffffffffffffffffffffffffffffff1673ffffffffffffffffffffffffffffffffffffffff16146114c3576040517f08c379a00000000000000000000000000000000000000000000000000000000081526004018080602001828103825260148152602001807f43616c6c6572206e6f7420746865206f776e657200000000000000000000000081525060200191505060405180910390fd5b80600060146101000a81548160ff021916908315150217905550600060149054906101000a900460ff1615611556577f62e78cea01bee320cd4e420270b5ea74000d11b0c9f74754ebdbfc544b05a25833604051808273ffffffffffffffffffffffffffffffffffffffff1673ffffffffffffffffffffffffffffffffffffffff16815260200191505060405180910390a15b600060149054906101000a900460ff166115ce577fff2b959f2bcdb44c7ecb4b16dae055431019d7350607125cfc2b74a06632c90e33604051808273ffffffffffffffffffffffffffffffffffffffff1673ffffffffffffffffffffffffffffffffffffffff16815260200191505060405180910390a15b50565b6060600f8054600181600116156101000203166002900480601f0160208091040260200160405190810160405280929190818152602001828054600181600116156101000203166002900480156116695780601f1061163e57610100808354040283529160200191611669565b820191906000526020600020905b81548152906001019060200180831161164c57829003601f168201915b5050505050905090565b6000600880549050905090565b61168a338261266d565b6116fc576040517f08c379a000000000000000000000000000000000000000000000000000000000815260040180806020018281038252601f8152602001807f596f752073686f756c64206265206f776e6572206f7220617070726f7665640081525060200191505060405180910390fd5b611707838383612702565b505050565b61174b828260006040519080825280601f01601f1916602001820160405280156117455781602001600182028038833980820191505090505b5061182b565b5050565b600061175a83611f79565b82106117ce576040517f08c379a000000000000000000000000000000000000000000000000000000000815260040180806020018281038252601f8152602001807f696e646578206973206f7574206f662062616c616e63654f66206f776e65720081525060200191505060405180910390fd5b600660008473ffffffffffffffffffffffffffffffffffffffff1673ffffffffffffffffffffffffffffffffffffffff168152602001908152602001600020828154811061181857fe5b9060005260206000200154905092915050565b505050565b6000848484846040516020018085600260200280838360005b83811015611864578082015181840152602081019050611849565b505050509050018460026000925b818410156118b85782846020020151600260200280838360005b838110156118a757808201518184015260208101905061188c565b505050509050019260010192611872565b9250505083600260200280838360005b838110156118e35780820151818401526020810190506118c8565b5050505090500182600260200280838360005b838110156119115780820151818401526020810190506118f6565b505050509050019450505050506040516020818303038152906040528051906020012090506014600082815260200190815260200160002060009054906101000a900460ff16156119ca576040517f08c379a000000000000000000000000000000000000000000000000000000000815260040180806020018281038252601f8152602001807f5468697320736f6c7574696f6e2077617320616c72656164792075736564210081525060200191505060405180910390fd5b60006119d886868686611d40565b905080611a4d576040517f08c379a00000000000000000000000000000000000000000000000000000000081526004018080602001828103825260208152602001807f5468652070726f76696465642070726f6f66206973206e6f742076616c69642181525060200191505060405180910390fd5b611a55614711565b60405180608001604052808481526020018a73ffffffffffffffffffffffffffffffffffffffff16815260200189815260200160011515815250905080601360008a81526020019081526020016000206000820151816000015560208201518160010160006101000a81548173ffffffffffffffffffffffffffffffffffffffff021916908373ffffffffffffffffffffffffffffffffffffffff1602179055506040820151816002015560608201518160030160006101000a81548160ff02191690831515021790555090505060016014600085815260200190815260200160002060006101000a81548160ff0219169083151502179055507fd54d9ef5d3801dc9b4c79ac9cb0d5ed3b9c83d168bd86bb6e937ca7df70392da838a8a604051808481526020018373ffffffffffffffffffffffffffffffffffffffff1673ffffffffffffffffffffffffffffffffffffffff168152602001828152602001935050505060405180910390a1505050505050505050565b60006013600083815260200190815260200160002060030160009054906101000a900460ff16611c65576040517f08c379a00000000000000000000000000000000000000000000000000000000081526004018080602001828103825260208152602001807f736f6c7574696f6e20686173206265656e2075736564206265666f726521212181525060200191505060405180910390fd5b611c6f8383612726565b905092915050565b611c928383836040518060200160405280600081525061214f565b505050565b60008060009054906101000a900473ffffffffffffffffffffffffffffffffffffffff16905090565b6000611cca611673565b8210611d21576040517f08c379a00000000000000000000000000000000000000000000000000000000081526004018080602001828103825260268152602001806149826026913960400191505060405180910390fd5b60088281548110611d2e57fe5b90600052602060002001549050919050565b6000611d4a614754565b604051806040016040528087600060028110611d6257fe5b6020020151815260200187600160028110611d7957fe5b602002015181525081600001819052506040518060400160405280604051806040016040528088600060028110611dac57fe5b6020020151600060028110611dbd57fe5b6020020151815260200188600060028110611dd457fe5b6020020151600160028110611de557fe5b60200201518152508152602001604051806040016040528088600160028110611e0a57fe5b6020020151600060028110611e1b57fe5b6020020151815260200188600160028110611e3257fe5b6020020151600160028110611e4357fe5b60200201518152508152508160200181905250604051806040016040528085600060028110611e6e57fe5b6020020151815260200185600160028110611e8557fe5b6020020151815250816040018190525060606002604051908082528060200260200182016040528015611ec75781602001602082028038833980820191505090505b50905060008090505b6002811015611f0f57848160028110611ee557fe5b6020020151828281518110611ef657fe5b6020026020010181815250508080600101915050611ed0565b506000611f1c8284612807565b1415611f2d57600192505050611f34565b6000925050505b949350505050565b60006002600083815260200190815260200160002060009054906101000a900473ffffffffffffffffffffffffffffffffffffffff169050919050565b6000611fc2600460008473ffffffffffffffffffffffffffffffffffffffff1673ffffffffffffffffffffffffffffffffffffffff168152602001908152602001600020612a4b565b9050919050565b3373ffffffffffffffffffffffffffffffffffffffff168273ffffffffffffffffffffffffffffffffffffffff16141561204e576040517f08c379a00000000000000000000000000000000000000000000000000000000081526004018080602001828103825260298152602001806149d36029913960400191505060405180910390fd5b80600560003373ffffffffffffffffffffffffffffffffffffffff1673ffffffffffffffffffffffffffffffffffffffff16815260200190815260200160002060008473ffffffffffffffffffffffffffffffffffffffff1673ffffffffffffffffffffffffffffffffffffffff16815260200190815260200160002060006101000a81548160ff0219169083151502179055508173ffffffffffffffffffffffffffffffffffffffff163373ffffffffffffffffffffffffffffffffffffffff167f17307eab39ab6107e8899845ad3d59bd9653f200f220920489ca2b5937696c3183604051808215151515815260200191505060405180910390a35050565b61215a848484611680565b61216684848484612a59565b6121d8576040517f08c379a00000000000000000000000000000000000000000000000000000000081526004018080602001828103825260188152602001807f4e6f74205265636569766564207769746820455243373231000000000000000081525060200191505060405180910390fd5b50505050565b606060118054600181600116156101000203166002900480601f0160208091040260200160405190810160405280929190818152602001828054600181600116156101000203166002900480156122765780601f1061224b57610100808354040283529160200191612276565b820191906000526020600020905b81548152906001019060200180831161225957829003601f168201915b5050505050905090565b606061228b82612c42565b6122fd576040517f08c379a00000000000000000000000000000000000000000000000000000000081526004018080602001828103825260158152602001807f546f6b656e20646f6573206e6f7420657869737473000000000000000000000081525060200191505060405180910390fd5b601260008381526020019081526020016000208054600181600116156101000203166002900480601f0160208091040260200160405190810160405280929190818152602001828054600181600116156101000203166002900480156123a45780601f10612379576101008083540402835291602001916123a4565b820191906000526020600020905b81548152906001019060200180831161238757829003601f168201915b50505050509050919050565b6000600560008473ffffffffffffffffffffffffffffffffffffffff1673ffffffffffffffffffffffffffffffffffffffff16815260200190815260200160002060008373ffffffffffffffffffffffffffffffffffffffff1673ffffffffffffffffffffffffffffffffffffffff16815260200190815260200160002060009054906101000a900460ff16905092915050565b3373ffffffffffffffffffffffffffffffffffffffff166000809054906101000a900473ffffffffffffffffffffffffffffffffffffffff1673ffffffffffffffffffffffffffffffffffffffff1614612506576040517f08c379a00000000000000000000000000000000000000000000000000000000081526004018080602001828103825260148152602001807f43616c6c6572206e6f7420746865206f776e657200000000000000000000000081525060200191505060405180910390fd5b600073ffffffffffffffffffffffffffffffffffffffff168173ffffffffffffffffffffffffffffffffffffffff1614156125a9576040517f08c379a00000000000000000000000000000000000000000000000000000000081526004018080602001828103825260188152602001807f4e65772061646472657373206973206e6f742076616c6964000000000000000081525060200191505060405180910390fd5b60008060009054906101000a900473ffffffffffffffffffffffffffffffffffffffff169050816000806101000a81548173ffffffffffffffffffffffffffffffffffffffff021916908373ffffffffffffffffffffffffffffffffffffffff1602179055508173ffffffffffffffffffffffffffffffffffffffff168173ffffffffffffffffffffffffffffffffffffffff167f0d18b5fd22306e373229b9439188228edca81207d1667f604daf6cef8aa3ee6760405160405180910390a35050565b60008061267983611f3c565b90508073ffffffffffffffffffffffffffffffffffffffff168473ffffffffffffffffffffffffffffffffffffffff1614806126e857508373ffffffffffffffffffffffffffffffffffffffff166126d084610f47565b73ffffffffffffffffffffffffffffffffffffffff16145b806126f957506126f881856123b0565b5b91505092915050565b61270d838383612cb4565b6127178382612f90565b612721828261312e565b505050565b60003373ffffffffffffffffffffffffffffffffffffffff166000809054906101000a900473ffffffffffffffffffffffffffffffffffffffff1673ffffffffffffffffffffffffffffffffffffffff16146127ea576040517f08c379a00000000000000000000000000000000000000000000000000000000081526004018080602001828103825260148152602001807f43616c6c6572206e6f7420746865206f776e657200000000000000000000000081525060200191505060405180910390fd5b6127f483836131f5565b6127fd82613216565b6001905092915050565b6000807f30644e72e131a029b85045b68181585d2833e84879b9709143e1f593f00000019050612835614787565b61283d613367565b90508060800151516001865101146128bd576040517f08c379a00000000000000000000000000000000000000000000000000000000081526004018080602001828103825260108152602001807f6c656e677468206e6f7420657175616c0000000000000000000000000000000081525060200191505060405180910390fd5b6128c56147ce565b6040518060400160405280600081526020016000815250905060008090505b86518110156129c457838782815181106128fa57fe5b602002602001015110612975576040517f08c379a00000000000000000000000000000000000000000000000000000000081526004018080602001828103825260118152602001807f696e707574206e6f7420736d616c6c657200000000000000000000000000000081525060200191505060405180910390fd5b6129b5826129b08560800151600185018151811061298f57fe5b60200260200101518a85815181106129a357fe5b60200260200101516137b5565b6138b0565b915080806001019150506128e4565b506129e78183608001516000815181106129da57fe5b60200260200101516138b0565b9050612a2d856000015186602001516129ff846139ca565b8560400151612a118a604001516139ca565b8760600151612a2389600001516139ca565b8960200151613a64565b612a3d5760019350505050612a45565b600093505050505b92915050565b600081600001549050919050565b6000612a7a8473ffffffffffffffffffffffffffffffffffffffff16613bc8565b612a875760019050612c3a565b60008473ffffffffffffffffffffffffffffffffffffffff1663150b7a02338887876040518563ffffffff1660e01b8152600401808573ffffffffffffffffffffffffffffffffffffffff1673ffffffffffffffffffffffffffffffffffffffff1681526020018473ffffffffffffffffffffffffffffffffffffffff1673ffffffffffffffffffffffffffffffffffffffff16815260200183815260200180602001828103825283818151815260200191508051906020019080838360005b83811015612b62578082015181840152602081019050612b47565b50505050905090810190601f168015612b8f5780820380516001836020036101000a031916815260200191505b5095505050505050602060405180830381600087803b158015612bb157600080fd5b505af1158015612bc5573d6000803e3d6000fd5b505050506040513d6020811015612bdb57600080fd5b8101908080519060200190929190505050905063150b7a0260e01b7bffffffffffffffffffffffffffffffffffffffffffffffffffffffff1916817bffffffffffffffffffffffffffffffffffffffffffffffffffffffff1916149150505b949350505050565b6000806002600084815260200190815260200160002060009054906101000a900473ffffffffffffffffffffffffffffffffffffffff169050600073ffffffffffffffffffffffffffffffffffffffff168173ffffffffffffffffffffffffffffffffffffffff161415915050919050565b6002600082815260200190815260200160002060009054906101000a900473ffffffffffffffffffffffffffffffffffffffff1673ffffffffffffffffffffffffffffffffffffffff168373ffffffffffffffffffffffffffffffffffffffff1614612d88576040517f08c379a00000000000000000000000000000000000000000000000000000000081526004018080602001828103825260148152602001807f63616c6c6572206e6f7420746865206f776e657200000000000000000000000081525060200191505060405180910390fd5b612da78273ffffffffffffffffffffffffffffffffffffffff16613bc8565b15612dfd576040517f08c379a000000000000000000000000000000000000000000000000000000000815260040180806020018281038252602b8152602001806149a8602b913960400191505060405180910390fd5b60006003600083815260200190815260200160002060006101000a81548173ffffffffffffffffffffffffffffffffffffffff021916908373ffffffffffffffffffffffffffffffffffffffff160217905550816002600083815260200190815260200160002060006101000a81548173ffffffffffffffffffffffffffffffffffffffff021916908373ffffffffffffffffffffffffffffffffffffffff160217905550612ee9600460008573ffffffffffffffffffffffffffffffffffffffff1673ffffffffffffffffffffffffffffffffffffffff168152602001908152602001600020613c13565b612f30600460008473ffffffffffffffffffffffffffffffffffffffff1673ffffffffffffffffffffffffffffffffffffffff168152602001908152602001600020613c36565b808273ffffffffffffffffffffffffffffffffffffffff168473ffffffffffffffffffffffffffffffffffffffff167fddf252ad1be2c89b69c2b068fc378daa952ba7f163c4a11628f55a4df523b3ef60405160405180910390a4505050565b6000612fe86001600660008673ffffffffffffffffffffffffffffffffffffffff1673ffffffffffffffffffffffffffffffffffffffff16815260200190815260200160002080549050613c4c90919063ffffffff16565b90506000600760008481526020019081526020016000205490508181146130d5576000600660008673ffffffffffffffffffffffffffffffffffffffff1673ffffffffffffffffffffffffffffffffffffffff168152602001908152602001600020838154811061305557fe5b9060005260206000200154905080600660008773ffffffffffffffffffffffffffffffffffffffff1673ffffffffffffffffffffffffffffffffffffffff16815260200190815260200160002083815481106130ad57fe5b9060005260206000200181905550816007600083815260200190815260200160002081905550505b600660008573ffffffffffffffffffffffffffffffffffffffff1673ffffffffffffffffffffffffffffffffffffffff16815260200190815260200160002080548091906001900361312791906147e8565b5050505050565b600660008373ffffffffffffffffffffffffffffffffffffffff1673ffffffffffffffffffffffffffffffffffffffff168152602001908152602001600020805490506007600083815260200190815260200160002081905550600660008373ffffffffffffffffffffffffffffffffffffffff1673ffffffffffffffffffffffffffffffffffffffff1681526020019081526020016000208190806001815401808255809150509060018203906000526020600020016000909192909190915055505050565b6131ff8282613c96565b61320881613ead565b613212828261312e565b5050565b61321f81612c42565b613291576040517f08c379a00000000000000000000000000000000000000000000000000000000081526004018080602001828103825260158152602001807f546f6b656e20646f6573206e6f7420657869737473000000000000000000000081525060200191505060405180910390fd5b61333d60118054600181600116156101000203166002900480601f01602080910402602001604051908101604052809291908181526020018280546001816001161561010002031660029004801561332a5780601f106132ff5761010080835404028352916020019161332a565b820191906000526020600020905b81548152906001019060200180831161330d57829003601f168201915b505050505061333883613ef9565b614026565b601260008381526020019081526020016000209080519060200190613363929190614814565b5050565b61336f614787565b60405180604001604052807f2835472158bb8ffff20d6fed841b29653f768d5ef0e5df5fe67295ffbeafe2fc81526020017f17ffba03a5c7a642d6043932269e636e5d685c9367da7b54b53a4236c30a59a78152508160000181905250604051806040016040528060405180604001604052807f1b2347da4e2c691291b58bcf46eb01d67feb00e90ebe3a12f09ea5c26cfb71de81526020017f05df472a390d0d75ed41fb89db2227443b55a7648df952ef2eb7b00c0ce9e293815250815260200160405180604001604052807f11a85972c60ef4eed3870e9d046a5f8972b3709c9c48fbbb4e47bd6659848c0481526020017f2c627dd140f27274d8981b2de976fa59e9fc1ec76676b582c498f7393ca3e0778152508152508160200181905250604051806040016040528060405180604001604052807f146513a6b2646029e2ecebcb31b57b30d11d0beb9a7b810503995c7b54faefb981526020017f265ce9c749ccd02d0922c357a52c1ac0c280e78b3e6477197b5f01ec73431f48815250815260200160405180604001604052807f08a3de21ef31f20dc959db15c9d503047666d85cdf5368fecdc98cc2e7552a9581526020017f0e67b82d36772ccba1b7cb9fc96f0c8aa5ee89d07604decc584573eb40f6e2c28152508152508160400181905250604051806040016040528060405180604001604052807f2a65a09a8ad9f27a8ae36c6ed1e7d0a5e68d6b65729bf6c4358a31f6401d667a81526020017f28b08452fbea2a395b3f4b0585587c69a10b9e6d5bae21dd8eb4f751dcc8a50a815250815260200160405180604001604052807f0d203dcae43c44d08dd5ad85bb499dfa38abfe3945ee34f3084deaf801f0df1b81526020017f027e3626534e309bb5f3cae55386a4f9d87c4c1801df9e38f230211bcdc52a9c8152508152508160600181905250600360405190808252806020026020018201604052801561365657816020015b613643614894565b81526020019060019003908161363b5790505b50816080018190525060405180604001604052807f24bc3a6db2ac6535147d9925b000cd88712dc25128639c3dfa93f1e9c85e497f81526020017f1d6034f10d9678d886bffc3aa506355bb44bb657495372b1e367440b8fa2370981525081608001516000815181106136c557fe5b602002602001018190525060405180604001604052807f1a58a77ab1b74dcc3f5e2001ee8af39e7d4922351c8421b951c318715408d1a381526020017f1b3e21943d49c48ee6ff0d1e717f536a6aea9fb62096259ab5052ebcf33c24b8815250816080015160018151811061373657fe5b602002602001018190525060405180604001604052807f3059f2879a918cf202daef3328b358114d53318c062e50a12855eac9341bceaf81526020017f0877820408d24a3df1c498c495bda3ab8310c8ae78d28eb68a8c362059315e4c81525081608001516002815181106137a757fe5b602002602001018190525090565b6137bd6147ce565b6137c56148ae565b8360000151816000600381106137d757fe5b6020020181815250508360200151816001600381106137f257fe5b602002018181525050828160026003811061380957fe5b602002018181525050600060608360808460076107d05a03fa9050806000811461383257613834565bfe5b50806138a8576040517f08c379a000000000000000000000000000000000000000000000000000000000815260040180806020018281038252600b8152602001807f4e6f74207375636365737300000000000000000000000000000000000000000081525060200191505060405180910390fd5b505092915050565b6138b86147ce565b6138c06148d0565b8360000151816000600481106138d257fe5b6020020181815250508360200151816001600481106138ed57fe5b60200201818152505082600001518160026004811061390857fe5b60200201818152505082602001518160036004811061392357fe5b602002018181525050600060608360c08460066107d05a03fa9050806000811461394c5761394e565bfe5b50806139c2576040517f08c379a000000000000000000000000000000000000000000000000000000000815260040180806020018281038252600b8152602001807f4e6f74207375636365737300000000000000000000000000000000000000000081525060200191505060405180910390fd5b505092915050565b6139d26147ce565b60007f30644e72e131a029b85045b68181585d97816a916871ca8d3c208c16d87cfd47905060008360000151148015613a0f575060008360200151145b15613a33576040518060400160405280600081526020016000815250915050613a5f565b60405180604001604052808460000151815260200182856020015181613a5557fe5b0683038152509150505b919050565b600060606004604051908082528060200260200182016040528015613aa357816020015b613a90614894565b815260200190600190039081613a885790505b50905060606004604051908082528060200260200182016040528015613ae357816020015b613ad06148f2565b815260200190600190039081613ac85790505b5090508a82600081518110613af457fe5b60200260200101819052508882600181518110613b0d57fe5b60200260200101819052508682600281518110613b2657fe5b60200260200101819052508482600381518110613b3f57fe5b60200260200101819052508981600081518110613b5857fe5b60200260200101819052508781600181518110613b7157fe5b60200260200101819052508581600281518110613b8a57fe5b60200260200101819052508381600381518110613ba357fe5b6020026020010181905250613bb8828261406a565b9250505098975050505050505050565b60008060007fc5d2460186f7233c927e7db2dcc703c0e500b653ca82273b7bfad8045d85a47060001b9050833f9150808214158015613c0a57506000801b8214155b92505050919050565b613c2b60018260000154613c4c90919063ffffffff16565b816000018190555050565b6001816000016000828254019250508190555050565b6000613c8e83836040518060400160405280601e81526020017f536166654d6174683a207375627472616374696f6e206f766572666c6f77000081525061438f565b905092915050565b613c9f81612c42565b15613d12576040517f08c379a00000000000000000000000000000000000000000000000000000000081526004018080602001828103825260148152602001807f546f6b656e20616c72656164792065786973747300000000000000000000000081525060200191505060405180910390fd5b600073ffffffffffffffffffffffffffffffffffffffff168273ffffffffffffffffffffffffffffffffffffffff161415613db5576040517f08c379a00000000000000000000000000000000000000000000000000000000081526004018080602001828103825260128152602001807f496e76616c696420746f2061646472657373000000000000000000000000000081525060200191505060405180910390fd5b816002600083815260200190815260200160002060006101000a81548173ffffffffffffffffffffffffffffffffffffffff021916908373ffffffffffffffffffffffffffffffffffffffff160217905550613e4e600460008473ffffffffffffffffffffffffffffffffffffffff1673ffffffffffffffffffffffffffffffffffffffff168152602001908152602001600020613c36565b808273ffffffffffffffffffffffffffffffffffffffff163373ffffffffffffffffffffffffffffffffffffffff167fddf252ad1be2c89b69c2b068fc378daa952ba7f163c4a11628f55a4df523b3ef60405160405180910390a45050565b6008805490506009600083815260200190815260200160002081905550600881908060018154018082558091505090600182039060005260206000200160009091929091909150555050565b60606000821415613f41576040518060400160405280600181526020017f30000000000000000000000000000000000000000000000000000000000000008152509050614021565b600082905060005b60008214613f6b578080600101915050600a8281613f6357fe5b049150613f49565b6060816040519080825280601f01601f191660200182016040528015613fa05781602001600182028038833980820191505090505b50905060006001830390505b6000861461401957600a8681613fbe57fe5b0660300160f81b82828060019003935081518110613fd857fe5b60200101907effffffffffffffffffffffffffffffffffffffffffffffffffffffffffffff1916908160001a905350600a868161401157fe5b049550613fac565b819450505050505b919050565b6060614062838360405180602001604052806000815250604051806020016040528060008152506040518060200160405280600081525061444f565b905092915050565b600081518351146140e3576040517f08c379a00000000000000000000000000000000000000000000000000000000081526004018080602001828103825260158152602001807f6c656e6774687320617265206e6f7420657175616c000000000000000000000081525060200191505060405180910390fd5b60008351905060006006820290506060816040519080825280602002602001820160405280156141225781602001602082028038833980820191505090505b50905060008090505b838110156142c85786818151811061413f57fe5b60200260200101516000015182600060068402018151811061415d57fe5b60200260200101818152505086818151811061417557fe5b60200260200101516020015182600160068402018151811061419357fe5b6020026020010181815250508581815181106141ab57fe5b6020026020010151600001516001600281106141c357fe5b60200201518260026006840201815181106141da57fe5b6020026020010181815250508581815181106141f257fe5b60200260200101516000015160006002811061420a57fe5b602002015182600360068402018151811061422157fe5b60200260200101818152505085818151811061423957fe5b60200260200101516020015160016002811061425157fe5b602002015182600460068402018151811061426857fe5b60200260200101818152505085818151811061428057fe5b60200260200101516020015160006002811061429857fe5b60200201518260056006840201815181106142af57fe5b602002602001018181525050808060010191505061412b565b506142d1614918565b6000602082602086026020860160086107d05a03fa905080600081146142f6576142f8565bfe5b508061436c576040517f08c379a000000000000000000000000000000000000000000000000000000000815260040180806020018281038252600b8152602001807f4e6f74207375636365737300000000000000000000000000000000000000000081525060200191505060405180910390fd5b60008260006001811061437b57fe5b602002015114159550505050505092915050565b600083831115829061443c576040517f08c379a00000000000000000000000000000000000000000000000000000000081526004018080602001828103825283818151815260200191508051906020019080838360005b838110156144015780820151818401526020810190506143e6565b50505050905090810190601f16801561442e5780820380516001836020036101000a031916815260200191505b509250505060405180910390fd5b5060008385039050809150509392505050565b6060808690506060869050606086905060608690506060869050606081518351855187518951010101016040519080825280601f01601f1916602001820160405280156144ab5781602001600182028038833980820191505090505b509050606081905060008090506000809050600090505b8851811015614530578881815181106144d757fe5b602001015160f81c60f81b8383806001019450815181106144f457fe5b60200101907effffffffffffffffffffffffffffffffffffffffffffffffffffffffffffff1916908160001a90535080806001019150506144c2565b600090505b87518110156145a35787818151811061454a57fe5b602001015160f81c60f81b83838060010194508151811061456757fe5b60200101907effffffffffffffffffffffffffffffffffffffffffffffffffffffffffffff1916908160001a9053508080600101915050614535565b600090505b8651811015614616578681815181106145bd57fe5b602001015160f81c60f81b8383806001019450815181106145da57fe5b60200101907effffffffffffffffffffffffffffffffffffffffffffffffffffffffffffff1916908160001a90535080806001019150506145a8565b600090505b85518110156146895785818151811061463057fe5b602001015160f81c60f81b83838060010194508151811061464d57fe5b60200101907effffffffffffffffffffffffffffffffffffffffffffffffffffffffffffff1916908160001a905350808060010191505061461b565b600090505b84518110156146fc578481815181106146a357fe5b602001015160f81c60f81b8383806001019450815181106146c057fe5b60200101907effffffffffffffffffffffffffffffffffffffffffffffffffffffffffffff1916908160001a905350808060010191505061468e565b82995050505050505050505095945050505050565b604051806080016040528060008019168152602001600073ffffffffffffffffffffffffffffffffffffffff168152602001600081526020016000151581525090565b6040518060600160405280614767614894565b81526020016147746148f2565b8152602001614781614894565b81525090565b6040518060a0016040528061479a614894565b81526020016147a76148f2565b81526020016147b46148f2565b81526020016147c16148f2565b8152602001606081525090565b604051806040016040528060008152602001600081525090565b81548183558181111561480f5781836000526020600020918201910161480e919061493a565b5b505050565b828054600181600116156101000203166002900490600052602060002090601f016020900481019282601f1061485557805160ff1916838001178555614883565b82800160010185558215614883579182015b82811115614882578251825591602001919060010190614867565b5b509050614890919061493a565b5090565b604051806040016040528060008152602001600081525090565b6040518060600160405280600390602082028038833980820191505090505090565b6040518060800160405280600490602082028038833980820191505090505090565b604051806040016040528061490561495f565b815260200161491261495f565b81525090565b6040518060200160405280600190602082028038833980820191505090505090565b61495c91905b80821115614958576000816000905550600101614940565b5090565b90565b604051806040016040528060029060208202803883398082019150509050509056fe696e646578206973206f7574206f6620626f756e6473206f6620746f74616c20737570706c79596f7520617265206e6f7420616c6c6f77656420746f207472616e7366657220746f20636f6e7472616374796f752063616e6e6f742063616c6c207468652066756e6374696f6e20666f7220796f757273656c66a265627a7a72315820d4544744dad007e2708e4661093af7c9f630101bad93424d5dd83bce2d29002e64736f6c6343000511003268747470733a2f2f73332d75732d776573742d322e616d617a6f6e6177732e636f6d2f756461636974792d626c6f636b636861696e2f63617073746f6e652f",
  "source": "// SPDX-License-Identifier: MIT\npragma solidity >=0.5.0;\n\n// import \"./ERC721Mintable.sol\";\n// import \"./verifier.sol\";\n\n// contract SolnSquareVerifier is SidRealEstateToken, Verifier {\n//     struct Solution {\n//         bytes32 index;\n//         address addr;\n//         uint256 tokenId;\n//         bool exists;\n//     }\n\n//     mapping(uint256 => Solution) solutions;\n\n//     mapping(bytes32 => bool) private uniqueSolutions;\n\n//     event SolutionAdded(bytes32 key, address addr, uint256 tokenId);\n\n//     function addSolution(address addr, uint256 tokenId, uint[2] memory a, uint[2] memory b, uint[2] memory c, uint[2] memory input) public {\n//         bytes32 key = keccak256(abi.encodePacked(a, b, c, input));\n//         require(!uniqueSolutions[key], \"This solution is already used\");\n//         bool isValidProof = verifyTx(a, b, c, input);\n//         require(isValidProof, \"This proof is not valid\");\n//         Solution memory solution = Solution(key, addr, tokenId, true);\n//         solutions[tokenId] = solution;\n//         uniqueSolutions[key] = true;\n//         emit SolutionAdded(key, addr, tokenId);\n//     }\n\n//     function ming(address to, uint256 tokenId) public returns (bool) {\n//         require(solutions[tokenId].exists, \"Solution has been used before\");\n//         return super.mint(to, tokenId);\n//     }\n// }\n\nimport \"./ERC721Mintable.sol\";\nimport \"./verifier.sol\";\nimport \"../node_modules/@openzeppelin/contracts/drafts/Counters.sol\";\n\n\n\n// define another contract named SolnSquareVerifier that inherits from your ERC721Mintable class\ncontract SolnSquareVerifier is Verifier, SidRealEstateToken {\n    // define a solutions struct that can hold an index & an address\n    struct Solution {\n        bytes32 index;\n        address addr;\n        uint256 tokenId;\n        bool exist;\n    }\n\n    // define an array of the above struct\n    mapping(uint256 => Solution) solutions;\n\n    // define a mapping to store unique solutions submitted\n    mapping(bytes32 => bool) private uniqueSolutions;\n\n    // Create an event to emit when a solution is added\n    event SolutionAdded(bytes32 key, address addr, uint256 tokenId);\n\n    //  Create a function to add the solutions to the array and emit the event\n    //  This will just limit the ability for a user to mint a token unless they have actually verified that they own that token\n    function addSolution(address addr, uint256 tokenId, uint[2] memory a, uint[2][2] memory b, uint[2] memory c, uint[2] memory input) public{\n        // Create unique key for the argumqnts\n        bytes32 key = keccak256(abi.encodePacked(a, b, c, input));\n        // Check whether the solution is already used\n        require(!uniqueSolutions[key], \"This solution was already used!\");\n        // Verification to check if a token is valid using zokrates (verifier.sol)\n        bool isValidProof = verifyTx(a, b, c, input);\n        require(isValidProof, \"The provided proof is not valid!\");\n        // Add solutions mappings and set uniqueSolutions to be true\n        Solution memory solution = Solution(key, addr, tokenId, true);\n        solutions[tokenId] = solution;\n        uniqueSolutions[key] = true;\n        emit SolutionAdded(key, addr, tokenId);\n    }\n\n\n    // Create a function to mint new NFT only after the solution has been verified\n    //  - make sure the solution is unique (has not been used before)\n    //  - make sure you handle metadata as well as tokenSuplly\n    function mint(address to, uint256 tokenId) public returns(bool){\n        require(solutions[tokenId].exist,\"solution has been used before!!!\");\n        return super.mint(to, tokenId);\n    }\n}\n\n// contract SolnSquareVerifier is SidRealEstateToken {\n//     using Counters for Counters.Counter;\n\n//     Counters.Counter private solutionsCount;\n\n//     Verifier private _verifier;\n\n//     struct Solution {\n//         uint256 index;\n//         address account;\n//         bool minted;\n//     }\n\n//     Solution[] private solutionsArray;\n\n//     mapping(bytes32 => Solution) private solutionsMapping;\n\n//     event SolutionAdded(uint256 solutionIndex, address solutionAddress);\n\n//     constructor(address verifierAddress, string memory name, string memory sybmol) public {\n//         _verifier = Verifier(verifierAddress)\n//     }\n// }",
  "sourcePath": "/Users/siddhantangore/Desktop/UdacityBlockchain/BlockchainCapstoneHousingProject/eth-contracts/contracts/SolnSquareVerifier.sol",
  "compiler": {
    "name": "solc",
    "version": "0.5.17+commit.d19bba13.Emscripten.clang"
  },
  "schemaVersion": "3.4.1",
  "updatedAt": "2021-07-18T12:31:12.185Z",
  "devdoc": {
    "methods": {}
  },
  "userdoc": {
    "methods": {}
  }
}